{
  "_format": "hh-sol-artifact-1",
  "contractName": "RamaToken",
  "sourceName": "contracts/RamaToken.sol",
  "abi": [
    {
      "inputs": [],
      "stateMutability": "nonpayable",
      "type": "constructor"
    },
    {
      "anonymous": false,
      "inputs": [
        {
          "indexed": false,
          "internalType": "address",
          "name": "filmOwner",
          "type": "address"
        },
        {
          "indexed": false,
          "internalType": "uint256",
          "name": "fundingGoal",
          "type": "uint256"
        },
        {
          "indexed": false,
          "internalType": "uint256",
          "name": "id",
          "type": "uint256"
        }
      ],
      "name": "AddFilm",
      "type": "event"
    },
    {
      "anonymous": false,
      "inputs": [
        {
          "indexed": true,
          "internalType": "address",
          "name": "owner",
          "type": "address"
        },
        {
          "indexed": true,
          "internalType": "address",
          "name": "spender",
          "type": "address"
        },
        {
          "indexed": false,
          "internalType": "uint256",
          "name": "value",
          "type": "uint256"
        }
      ],
      "name": "Approval",
      "type": "event"
    },
    {
      "anonymous": false,
      "inputs": [
        {
          "indexed": true,
          "internalType": "bytes32",
          "name": "role",
          "type": "bytes32"
        },
        {
          "indexed": true,
          "internalType": "bytes32",
          "name": "previousAdminRole",
          "type": "bytes32"
        },
        {
          "indexed": true,
          "internalType": "bytes32",
          "name": "newAdminRole",
          "type": "bytes32"
        }
      ],
      "name": "RoleAdminChanged",
      "type": "event"
    },
    {
      "anonymous": false,
      "inputs": [
        {
          "indexed": true,
          "internalType": "bytes32",
          "name": "role",
          "type": "bytes32"
        },
        {
          "indexed": true,
          "internalType": "address",
          "name": "account",
          "type": "address"
        },
        {
          "indexed": true,
          "internalType": "address",
          "name": "sender",
          "type": "address"
        }
      ],
      "name": "RoleGranted",
      "type": "event"
    },
    {
      "anonymous": false,
      "inputs": [
        {
          "indexed": true,
          "internalType": "bytes32",
          "name": "role",
          "type": "bytes32"
        },
        {
          "indexed": true,
          "internalType": "address",
          "name": "account",
          "type": "address"
        },
        {
          "indexed": true,
          "internalType": "address",
          "name": "sender",
          "type": "address"
        }
      ],
      "name": "RoleRevoked",
      "type": "event"
    },
    {
      "anonymous": false,
      "inputs": [
        {
          "indexed": true,
          "internalType": "address",
          "name": "from",
          "type": "address"
        },
        {
          "indexed": true,
          "internalType": "address",
          "name": "to",
          "type": "address"
        },
        {
          "indexed": false,
          "internalType": "uint256",
          "name": "value",
          "type": "uint256"
        }
      ],
      "name": "Transfer",
      "type": "event"
    },
    {
      "inputs": [],
      "name": "DEFAULT_ADMIN_ROLE",
      "outputs": [
        {
          "internalType": "bytes32",
          "name": "",
          "type": "bytes32"
        }
      ],
      "stateMutability": "view",
      "type": "function"
    },
    {
      "inputs": [],
      "name": "MINTER_ROLE",
      "outputs": [
        {
          "internalType": "bytes32",
          "name": "",
          "type": "bytes32"
        }
      ],
      "stateMutability": "view",
      "type": "function"
    },
    {
      "inputs": [
        {
          "internalType": "address",
          "name": "filmOwnerAddress",
          "type": "address"
        },
        {
          "internalType": "uint256",
          "name": "fundingGoal",
          "type": "uint256"
        }
      ],
      "name": "addFilm",
      "outputs": [],
      "stateMutability": "nonpayable",
      "type": "function"
    },
    {
      "inputs": [
        {
          "internalType": "address",
          "name": "owner",
          "type": "address"
        },
        {
          "internalType": "address",
          "name": "spender",
          "type": "address"
        }
      ],
      "name": "allowance",
      "outputs": [
        {
          "internalType": "uint256",
          "name": "",
          "type": "uint256"
        }
      ],
      "stateMutability": "view",
      "type": "function"
    },
    {
      "inputs": [
        {
          "internalType": "address",
          "name": "spender",
          "type": "address"
        },
        {
          "internalType": "uint256",
          "name": "amount",
          "type": "uint256"
        }
      ],
      "name": "approve",
      "outputs": [
        {
          "internalType": "bool",
          "name": "",
          "type": "bool"
        }
      ],
      "stateMutability": "nonpayable",
      "type": "function"
    },
    {
      "inputs": [
        {
          "internalType": "address",
          "name": "account",
          "type": "address"
        }
      ],
      "name": "balanceOf",
      "outputs": [
        {
          "internalType": "uint256",
          "name": "",
          "type": "uint256"
        }
      ],
      "stateMutability": "view",
      "type": "function"
    },
    {
      "inputs": [],
      "name": "decimals",
      "outputs": [
        {
          "internalType": "uint8",
          "name": "",
          "type": "uint8"
        }
      ],
      "stateMutability": "view",
      "type": "function"
    },
    {
      "inputs": [
        {
          "internalType": "address",
          "name": "spender",
          "type": "address"
        },
        {
          "internalType": "uint256",
          "name": "subtractedValue",
          "type": "uint256"
        }
      ],
      "name": "decreaseAllowance",
      "outputs": [
        {
          "internalType": "bool",
          "name": "",
          "type": "bool"
        }
      ],
      "stateMutability": "nonpayable",
      "type": "function"
    },
    {
      "inputs": [
        {
          "internalType": "uint256",
          "name": "",
          "type": "uint256"
        }
      ],
      "name": "filmIdToDetailsMapping",
      "outputs": [
        {
          "internalType": "uint256",
          "name": "targetAmount",
          "type": "uint256"
        }
      ],
      "stateMutability": "view",
      "type": "function"
    },
    {
      "inputs": [
        {
          "internalType": "address",
          "name": "",
          "type": "address"
        },
        {
          "internalType": "uint256",
          "name": "",
          "type": "uint256"
        }
      ],
      "name": "filmOwnerToFilmIdsMapping",
      "outputs": [
        {
          "internalType": "uint256",
          "name": "",
          "type": "uint256"
        }
      ],
      "stateMutability": "view",
      "type": "function"
    },
    {
      "inputs": [
        {
          "internalType": "uint256",
          "name": "id",
          "type": "uint256"
        }
      ],
      "name": "fundFilm",
      "outputs": [],
      "stateMutability": "payable",
      "type": "function"
    },
    {
      "inputs": [],
      "name": "getAllProjects",
      "outputs": [
        {
          "components": [
            {
              "internalType": "uint256",
              "name": "targetAmount",
              "type": "uint256"
            },
            {
              "internalType": "uint256",
              "name": "totalFunded",
              "type": "uint256"
            },
            {
              "internalType": "uint256",
              "name": "id",
              "type": "uint256"
            }
          ],
          "internalType": "struct FilmOwnerProjects.FilmData[]",
          "name": "",
          "type": "tuple[]"
        }
      ],
      "stateMutability": "view",
      "type": "function"
    },
    {
      "inputs": [
        {
          "internalType": "address",
          "name": "ownerAddress",
          "type": "address"
        }
      ],
      "name": "getProjectsOwned",
      "outputs": [
        {
          "internalType": "uint256[]",
          "name": "",
          "type": "uint256[]"
        }
      ],
      "stateMutability": "view",
      "type": "function"
    },
    {
      "inputs": [
        {
          "internalType": "bytes32",
          "name": "role",
          "type": "bytes32"
        }
      ],
      "name": "getRoleAdmin",
      "outputs": [
        {
          "internalType": "bytes32",
          "name": "",
          "type": "bytes32"
        }
      ],
      "stateMutability": "view",
      "type": "function"
    },
    {
      "inputs": [
        {
          "internalType": "uint256",
          "name": "id",
          "type": "uint256"
        }
      ],
      "name": "getTotalFundedAmount",
      "outputs": [
        {
          "internalType": "uint256",
          "name": "",
          "type": "uint256"
        }
      ],
      "stateMutability": "view",
      "type": "function"
    },
    {
      "inputs": [
        {
          "internalType": "bytes32",
          "name": "role",
          "type": "bytes32"
        },
        {
          "internalType": "address",
          "name": "account",
          "type": "address"
        }
      ],
      "name": "grantRole",
      "outputs": [],
      "stateMutability": "nonpayable",
      "type": "function"
    },
    {
      "inputs": [
        {
          "internalType": "bytes32",
          "name": "role",
          "type": "bytes32"
        },
        {
          "internalType": "address",
          "name": "account",
          "type": "address"
        }
      ],
      "name": "hasRole",
      "outputs": [
        {
          "internalType": "bool",
          "name": "",
          "type": "bool"
        }
      ],
      "stateMutability": "view",
      "type": "function"
    },
    {
      "inputs": [
        {
          "internalType": "address",
          "name": "spender",
          "type": "address"
        },
        {
          "internalType": "uint256",
          "name": "addedValue",
          "type": "uint256"
        }
      ],
      "name": "increaseAllowance",
      "outputs": [
        {
          "internalType": "bool",
          "name": "",
          "type": "bool"
        }
      ],
      "stateMutability": "nonpayable",
      "type": "function"
    },
    {
      "inputs": [
        {
          "internalType": "address",
          "name": "to",
          "type": "address"
        },
        {
          "internalType": "uint256",
          "name": "amount",
          "type": "uint256"
        }
      ],
      "name": "mint",
      "outputs": [],
      "stateMutability": "nonpayable",
      "type": "function"
    },
    {
      "inputs": [],
      "name": "name",
      "outputs": [
        {
          "internalType": "string",
          "name": "",
          "type": "string"
        }
      ],
      "stateMutability": "view",
      "type": "function"
    },
    {
      "inputs": [],
      "name": "owner",
      "outputs": [
        {
          "internalType": "address",
          "name": "",
          "type": "address"
        }
      ],
      "stateMutability": "view",
      "type": "function"
    },
    {
      "inputs": [
        {
          "internalType": "bytes32",
          "name": "role",
          "type": "bytes32"
        },
        {
          "internalType": "address",
          "name": "account",
          "type": "address"
        }
      ],
      "name": "renounceRole",
      "outputs": [],
      "stateMutability": "nonpayable",
      "type": "function"
    },
    {
      "inputs": [
        {
          "internalType": "bytes32",
          "name": "role",
          "type": "bytes32"
        },
        {
          "internalType": "address",
          "name": "account",
          "type": "address"
        }
      ],
      "name": "revokeRole",
      "outputs": [],
      "stateMutability": "nonpayable",
      "type": "function"
    },
    {
      "inputs": [
        {
          "internalType": "bytes4",
          "name": "interfaceId",
          "type": "bytes4"
        }
      ],
      "name": "supportsInterface",
      "outputs": [
        {
          "internalType": "bool",
          "name": "",
          "type": "bool"
        }
      ],
      "stateMutability": "view",
      "type": "function"
    },
    {
      "inputs": [],
      "name": "symbol",
      "outputs": [
        {
          "internalType": "string",
          "name": "",
          "type": "string"
        }
      ],
      "stateMutability": "view",
      "type": "function"
    },
    {
      "inputs": [],
      "name": "totalSupply",
      "outputs": [
        {
          "internalType": "uint256",
          "name": "",
          "type": "uint256"
        }
      ],
      "stateMutability": "view",
      "type": "function"
    },
    {
      "inputs": [
        {
          "internalType": "address",
          "name": "recipient",
          "type": "address"
        },
        {
          "internalType": "uint256",
          "name": "amount",
          "type": "uint256"
        }
      ],
      "name": "transfer",
      "outputs": [
        {
          "internalType": "bool",
          "name": "",
          "type": "bool"
        }
      ],
      "stateMutability": "nonpayable",
      "type": "function"
    },
    {
      "inputs": [
        {
          "internalType": "address",
          "name": "sender",
          "type": "address"
        },
        {
          "internalType": "address",
          "name": "recipient",
          "type": "address"
        },
        {
          "internalType": "uint256",
          "name": "amount",
          "type": "uint256"
        }
      ],
      "name": "transferFrom",
      "outputs": [
        {
          "internalType": "bool",
          "name": "",
          "type": "bool"
        }
      ],
      "stateMutability": "nonpayable",
      "type": "function"
    }
  ],
  "bytecode": "0x608060405260006008553480156200001657600080fd5b5060408051808201825260098152682930b6b0aa37b5b2b760b91b60208083019182528351808501909452600484526352414d4160e01b90840152815191929162000064916003916200015a565b5080516200007a9060049060208401906200015a565b5050600680546001600160a01b03191633908117909155620000a09150600090620000a6565b6200023d565b620000b28282620000b6565b5050565b60008281526005602090815260408083206001600160a01b038516845290915290205460ff16620000b25760008281526005602090815260408083206001600160a01b03851684529091529020805460ff19166001179055620001163390565b6001600160a01b0316816001600160a01b0316837f2f8788117e7eff1d82e926ec794901d17c78024a50270940304540a733656f0d60405160405180910390a45050565b828054620001689062000200565b90600052602060002090601f0160209004810192826200018c5760008555620001d7565b82601f10620001a757805160ff1916838001178555620001d7565b82800160010185558215620001d7579182015b82811115620001d7578251825591602001919060010190620001ba565b50620001e5929150620001e9565b5090565b5b80821115620001e55760008155600101620001ea565b600181811c908216806200021557607f821691505b602082108114156200023757634e487b7160e01b600052602260045260246000fd5b50919050565b611b3b806200024d6000396000f3fe6080604052600436106101b75760003560e01c806380d03829116100ec578063a9059cbb1161008a578063dd62ed3e11610064578063dd62ed3e1461051b578063e7217b8014610561578063ee38daa614610581578063f77d079a1461059457600080fd5b8063a9059cbb146104a7578063d5391393146104c7578063d547741f146104fb57600080fd5b806391d14854116100c657806391d148541461043d57806395d89b411461045d578063a217fddf14610472578063a457c2d71461048757600080fd5b806380d03829146103b657806386791f37146103d85780638da5cb5b1461040557600080fd5b80632f2ff15d116101595780633950935111610133578063395093511461032057806340c10f191461034057806357eb23da1461036057806370a082311461038057600080fd5b80632f2ff15d146102c4578063313ce567146102e457806336568abe1461030057600080fd5b80631306dde1116101955780631306dde11461023357806318160ddd1461025557806323b872dd14610274578063248a9ca31461029457600080fd5b806301ffc9a7146101bc57806306fdde03146101f1578063095ea7b314610213575b600080fd5b3480156101c857600080fd5b506101dc6101d73660046118a1565b6105c1565b60405190151581526020015b60405180910390f35b3480156101fd57600080fd5b506102066105f8565b6040516101e891906119db565b34801561021f57600080fd5b506101dc61022e36600461183e565b61068a565b34801561023f57600080fd5b5061025361024e36600461183e565b6106a0565b005b34801561026157600080fd5b506002545b6040519081526020016101e8565b34801561028057600080fd5b506101dc61028f366004611803565b6107fc565b3480156102a057600080fd5b506102666102af366004611867565b60009081526005602052604090206001015490565b3480156102d057600080fd5b506102536102df36600461187f565b6108a6565b3480156102f057600080fd5b50604051601281526020016101e8565b34801561030c57600080fd5b5061025361031b36600461187f565b6108d1565b34801561032c57600080fd5b506101dc61033b36600461183e565b61094f565b34801561034c57600080fd5b5061025361035b36600461183e565b61098b565b34801561036c57600080fd5b5061026661037b366004611867565b610a0b565b34801561038c57600080fd5b5061026661039b3660046117b7565b6001600160a01b031660009081526020819052604090205490565b3480156103c257600080fd5b506103cb610aad565b6040516101e8919061193e565b3480156103e457600080fd5b506103f86103f33660046117b7565b610bc0565b6040516101e89190611997565b34801561041157600080fd5b50600654610425906001600160a01b031681565b6040516001600160a01b0390911681526020016101e8565b34801561044957600080fd5b506101dc61045836600461187f565b610c2c565b34801561046957600080fd5b50610206610c57565b34801561047e57600080fd5b50610266600081565b34801561049357600080fd5b506101dc6104a236600461183e565b610c66565b3480156104b357600080fd5b506101dc6104c236600461183e565b610cff565b3480156104d357600080fd5b506102667f9f2df0fed2c77648de5860a4cc508cd0818c85b8b8a1ab4ceeef8d981c8956a681565b34801561050757600080fd5b5061025361051636600461187f565b610d0c565b34801561052757600080fd5b506102666105363660046117d1565b6001600160a01b03918216600090815260016020908152604080832093909416825291909152205490565b34801561056d57600080fd5b5061026661057c36600461183e565b610d32565b61025361058f366004611867565b610d63565b3480156105a057600080fd5b506102666105af366004611867565b600a6020526000908152604090205481565b60006001600160e01b03198216637965db0b60e01b14806105f257506301ffc9a760e01b6001600160e01b03198316145b92915050565b60606003805461060790611a9f565b80601f016020809104026020016040519081016040528092919081815260200182805461063390611a9f565b80156106805780601f1061065557610100808354040283529160200191610680565b820191906000526020600020905b81548152906001019060200180831161066357829003601f168201915b5050505050905090565b6000610697338484610f03565b50600192915050565b6006546001600160a01b031633146106f65760405162461bcd60e51b8152602060048201526014602482015273155b985d5d1a1bdc9a5cd959081c995c5d595cdd60621b60448201526064015b60405180910390fd5b61075a82600780548060200260200160405190810160405280929190818152602001828054801561075057602002820191906000526020600020905b81546001600160a01b03168152600190910190602001808311610732575b5050505050611027565b610767576107678261109b565b600854610775906001611a0e565b60088181556001600160a01b03841660008181526009602090815260408083208054600181018255908452828420019590955583548252600a8152908490208581559254845192835290820185905281840152915190917f7ace74df83698e6964a7700628685d305e06e2db61bc3bf262404a27684e536a919081900360600190a1505050565b6000610809848484611152565b6001600160a01b03841660009081526001602090815260408083203384529091529020548281101561088e5760405162461bcd60e51b815260206004820152602860248201527f45524332303a207472616e7366657220616d6f756e74206578636565647320616044820152676c6c6f77616e636560c01b60648201526084016106ed565b61089b8533858403610f03565b506001949350505050565b6000828152600560205260409020600101546108c28133611322565b6108cc8383611386565b505050565b6001600160a01b03811633146109415760405162461bcd60e51b815260206004820152602f60248201527f416363657373436f6e74726f6c3a2063616e206f6e6c792072656e6f756e636560448201526e103937b632b9903337b91039b2b63360891b60648201526084016106ed565b61094b828261140c565b5050565b3360008181526001602090815260408083206001600160a01b03871684529091528120549091610697918590610986908690611a0e565b610f03565b6109b57f9f2df0fed2c77648de5860a4cc508cd0818c85b8b8a1ab4ceeef8d981c8956a633610c2c565b610a015760405162461bcd60e51b815260206004820152601860248201527f43616c6c6572206973206e6f7420746865206d696e746572000000000000000060448201526064016106ed565b61094b8282611473565b60008060005b6000848152600a6020526040902060020154811015610aa6576000848152600a602052604081206002810180546001909201929184908110610a6357634e487b7160e01b600052603260045260246000fd5b60009182526020808320909101546001600160a01b03168352820192909252604001902054610a929083611a0e565b915080610a9e81611ad4565b915050610a11565b5092915050565b6060600060085467ffffffffffffffff811115610ada57634e487b7160e01b600052604160045260246000fd5b604051908082528060200260200182016040528015610b2f57816020015b610b1c60405180606001604052806000815260200160008152602001600081525090565b815260200190600190039081610af85790505b50905060015b6008548111610bba57604080516060810182526000838152600a6020908152928120548252918101610b6684610a0b565b815260200183905290508083610b7d600185611a45565b81518110610b9b57634e487b7160e01b600052603260045260246000fd5b6020026020010181905250508080610bb290611ad4565b915050610b35565b50919050565b6001600160a01b038116600090815260096020908152604091829020805483518184028101840190945280845260609392830182828015610c2057602002820191906000526020600020905b815481526020019060010190808311610c0c575b50505050509050919050565b60009182526005602090815260408084206001600160a01b0393909316845291905290205460ff1690565b60606004805461060790611a9f565b3360009081526001602090815260408083206001600160a01b038616845290915281205482811015610ce85760405162461bcd60e51b815260206004820152602560248201527f45524332303a2064656372656173656420616c6c6f77616e63652062656c6f77604482015264207a65726f60d81b60648201526084016106ed565b610cf53385858403610f03565b5060019392505050565b6000610697338484611152565b600082815260056020526040902060010154610d288133611322565b6108cc838361140c565b60096020528160005260406000208181548110610d4e57600080fd5b90600052602060002001600091509150505481565b6008548111158015610d73575060015b610db15760405162461bcd60e51b815260206004820152600f60248201526e125b9d985b1a5908199a5b1b481a59608a1b60448201526064016106ed565b610e2733600a6000848152602001908152602001600020600201805480602002602001604051908101604052809291908181526020018280548015610750576020028201919060005260206000209081546001600160a01b03168152600190910190602001808311610732575050505050611027565b610e5d576000818152600a602090815260408220600201805460018101825590835291200180546001600160a01b031916331790555b6000818152600a602052604090205434610e7683610a0b565b610e809190611a0e565b10610ebb5760405162461bcd60e51b815260206004820152600b60248201526a115e18d95cdcc8199d5b9960aa1b60448201526064016106ed565b6000818152600a60209081526040808320338452600101909152902054610ee3903490611a0e565b6000918252600a6020908152604080842033855260010190915290912055565b6001600160a01b038316610f655760405162461bcd60e51b8152602060048201526024808201527f45524332303a20617070726f76652066726f6d20746865207a65726f206164646044820152637265737360e01b60648201526084016106ed565b6001600160a01b038216610fc65760405162461bcd60e51b815260206004820152602260248201527f45524332303a20617070726f766520746f20746865207a65726f206164647265604482015261737360f01b60648201526084016106ed565b6001600160a01b0383811660008181526001602090815260408083209487168084529482529182902085905590518481527f8c5be1e5ebec7d5bd14f71427d1e84f3dd0314c0f7b2291e5b200ac8c7c3b925910160405180910390a3505050565b6000805b825181101561109157836001600160a01b031683828151811061105e57634e487b7160e01b600052603260045260246000fd5b60200260200101516001600160a01b0316141561107f5760019150506105f2565b61108a600182611a0e565b905061102b565b5060009392505050565b6110fd816007805480602002602001604051908101604052809291908181526020018280548015610750576020028201919060005260206000209081546001600160a01b03168152600190910190602001808311610732575050505050611027565b1561114f57604080516064808252610ca082019092529060208201610c80803683375050506001600160a01b0382166000908152600960209081526040909120825161094b939192919091019061173b565b50565b6001600160a01b0383166111b65760405162461bcd60e51b815260206004820152602560248201527f45524332303a207472616e736665722066726f6d20746865207a65726f206164604482015264647265737360d81b60648201526084016106ed565b6001600160a01b0382166112185760405162461bcd60e51b815260206004820152602360248201527f45524332303a207472616e7366657220746f20746865207a65726f206164647260448201526265737360e81b60648201526084016106ed565b6001600160a01b038316600090815260208190526040902054818110156112905760405162461bcd60e51b815260206004820152602660248201527f45524332303a207472616e7366657220616d6f756e7420657863656564732062604482015265616c616e636560d01b60648201526084016106ed565b6001600160a01b038085166000908152602081905260408082208585039055918516815290812080548492906112c7908490611a0e565b92505081905550826001600160a01b0316846001600160a01b03167fddf252ad1be2c89b69c2b068fc378daa952ba7f163c4a11628f55a4df523b3ef8460405161131391815260200190565b60405180910390a35b50505050565b61132c8282610c2c565b61094b57611344816001600160a01b03166014611552565b61134f836020611552565b6040516020016113609291906118c9565b60408051601f198184030181529082905262461bcd60e51b82526106ed916004016119db565b6113908282610c2c565b61094b5760008281526005602090815260408083206001600160a01b03851684529091529020805460ff191660011790556113c83390565b6001600160a01b0316816001600160a01b0316837f2f8788117e7eff1d82e926ec794901d17c78024a50270940304540a733656f0d60405160405180910390a45050565b6114168282610c2c565b1561094b5760008281526005602090815260408083206001600160a01b0385168085529252808320805460ff1916905551339285917ff6391f5c32d9c69d2a47ea670b442974b53935d1edc7fd64eb21e047a839171b9190a45050565b6001600160a01b0382166114c95760405162461bcd60e51b815260206004820152601f60248201527f45524332303a206d696e7420746f20746865207a65726f20616464726573730060448201526064016106ed565b80600260008282546114db9190611a0e565b90915550506001600160a01b03821660009081526020819052604081208054839290611508908490611a0e565b90915550506040518181526001600160a01b038316906000907fddf252ad1be2c89b69c2b068fc378daa952ba7f163c4a11628f55a4df523b3ef9060200160405180910390a35050565b60606000611561836002611a26565b61156c906002611a0e565b67ffffffffffffffff81111561159257634e487b7160e01b600052604160045260246000fd5b6040519080825280601f01601f1916602001820160405280156115bc576020820181803683370190505b509050600360fc1b816000815181106115e557634e487b7160e01b600052603260045260246000fd5b60200101906001600160f81b031916908160001a905350600f60fb1b8160018151811061162257634e487b7160e01b600052603260045260246000fd5b60200101906001600160f81b031916908160001a9053506000611646846002611a26565b611651906001611a0e565b90505b60018111156116e5576f181899199a1a9b1b9c1cb0b131b232b360811b85600f166010811061169357634e487b7160e01b600052603260045260246000fd5b1a60f81b8282815181106116b757634e487b7160e01b600052603260045260246000fd5b60200101906001600160f81b031916908160001a90535060049490941c936116de81611a88565b9050611654565b5083156117345760405162461bcd60e51b815260206004820181905260248201527f537472696e67733a20686578206c656e67746820696e73756666696369656e7460448201526064016106ed565b9392505050565b828054828255906000526020600020908101928215611776579160200282015b8281111561177657825182559160200191906001019061175b565b50611782929150611786565b5090565b5b808211156117825760008155600101611787565b80356001600160a01b03811681146117b257600080fd5b919050565b6000602082840312156117c8578081fd5b6117348261179b565b600080604083850312156117e3578081fd5b6117ec8361179b565b91506117fa6020840161179b565b90509250929050565b600080600060608486031215611817578081fd5b6118208461179b565b925061182e6020850161179b565b9150604084013590509250925092565b60008060408385031215611850578182fd5b6118598361179b565b946020939093013593505050565b600060208284031215611878578081fd5b5035919050565b60008060408385031215611891578182fd5b823591506117fa6020840161179b565b6000602082840312156118b2578081fd5b81356001600160e01b031981168114611734578182fd5b7f416363657373436f6e74726f6c3a206163636f756e7420000000000000000000815260008351611901816017850160208801611a5c565b7001034b99036b4b9b9b4b733903937b6329607d1b6017918401918201528351611932816028840160208801611a5c565b01602801949350505050565b602080825282518282018190526000919060409081850190868401855b8281101561198a578151805185528681015187860152850151858501526060909301929085019060010161195b565b5091979650505050505050565b6020808252825182820181905260009190848201906040850190845b818110156119cf578351835292840192918401916001016119b3565b50909695505050505050565b60208152600082518060208401526119fa816040850160208701611a5c565b601f01601f19169190910160400192915050565b60008219821115611a2157611a21611aef565b500190565b6000816000190483118215151615611a4057611a40611aef565b500290565b600082821015611a5757611a57611aef565b500390565b60005b83811015611a77578181015183820152602001611a5f565b8381111561131c5750506000910152565b600081611a9757611a97611aef565b506000190190565b600181811c90821680611ab357607f821691505b60208210811415610bba57634e487b7160e01b600052602260045260246000fd5b6000600019821415611ae857611ae8611aef565b5060010190565b634e487b7160e01b600052601160045260246000fdfea2646970667358221220b01104c32ae5e9c1754a5399fcc7dd8ae5d72bc2551fffe70955184069ac975764736f6c63430008040033",
  "linkReferences": {},
  "deployedLinkReferences": {}
}