{
  "_format": "hh-sol-artifact-1",
  "contractName": "RamaToken",
  "sourceName": "contracts/RamaToken.sol",
  "abi": [
    {
      "inputs": [],
      "stateMutability": "nonpayable",
      "type": "constructor"
    },
    {
      "anonymous": false,
      "inputs": [
        {
          "indexed": true,
          "internalType": "address",
          "name": "owner",
          "type": "address"
        },
        {
          "indexed": true,
          "internalType": "address",
          "name": "spender",
          "type": "address"
        },
        {
          "indexed": false,
          "internalType": "uint256",
          "name": "value",
          "type": "uint256"
        }
      ],
      "name": "Approval",
      "type": "event"
    },
    {
      "anonymous": false,
      "inputs": [
        {
          "indexed": true,
          "internalType": "bytes32",
          "name": "role",
          "type": "bytes32"
        },
        {
          "indexed": true,
          "internalType": "bytes32",
          "name": "previousAdminRole",
          "type": "bytes32"
        },
        {
          "indexed": true,
          "internalType": "bytes32",
          "name": "newAdminRole",
          "type": "bytes32"
        }
      ],
      "name": "RoleAdminChanged",
      "type": "event"
    },
    {
      "anonymous": false,
      "inputs": [
        {
          "indexed": true,
          "internalType": "bytes32",
          "name": "role",
          "type": "bytes32"
        },
        {
          "indexed": true,
          "internalType": "address",
          "name": "account",
          "type": "address"
        },
        {
          "indexed": true,
          "internalType": "address",
          "name": "sender",
          "type": "address"
        }
      ],
      "name": "RoleGranted",
      "type": "event"
    },
    {
      "anonymous": false,
      "inputs": [
        {
          "indexed": true,
          "internalType": "bytes32",
          "name": "role",
          "type": "bytes32"
        },
        {
          "indexed": true,
          "internalType": "address",
          "name": "account",
          "type": "address"
        },
        {
          "indexed": true,
          "internalType": "address",
          "name": "sender",
          "type": "address"
        }
      ],
      "name": "RoleRevoked",
      "type": "event"
    },
    {
      "anonymous": false,
      "inputs": [
        {
          "indexed": true,
          "internalType": "address",
          "name": "from",
          "type": "address"
        },
        {
          "indexed": true,
          "internalType": "address",
          "name": "to",
          "type": "address"
        },
        {
          "indexed": false,
          "internalType": "uint256",
          "name": "value",
          "type": "uint256"
        }
      ],
      "name": "Transfer",
      "type": "event"
    },
    {
      "inputs": [],
      "name": "DEFAULT_ADMIN_ROLE",
      "outputs": [
        {
          "internalType": "bytes32",
          "name": "",
          "type": "bytes32"
        }
      ],
      "stateMutability": "view",
      "type": "function"
    },
    {
      "inputs": [],
      "name": "MINTER_ROLE",
      "outputs": [
        {
          "internalType": "bytes32",
          "name": "",
          "type": "bytes32"
        }
      ],
      "stateMutability": "view",
      "type": "function"
    },
    {
      "inputs": [
        {
          "internalType": "address",
          "name": "filmOwnerAddress",
          "type": "address"
        },
        {
          "internalType": "uint256",
          "name": "fundingGoal",
          "type": "uint256"
        },
        {
          "internalType": "bytes32",
          "name": "id",
          "type": "bytes32"
        }
      ],
      "name": "addFilm",
      "outputs": [],
      "stateMutability": "nonpayable",
      "type": "function"
    },
    {
      "inputs": [
        {
          "internalType": "address",
          "name": "owner",
          "type": "address"
        },
        {
          "internalType": "address",
          "name": "spender",
          "type": "address"
        }
      ],
      "name": "allowance",
      "outputs": [
        {
          "internalType": "uint256",
          "name": "",
          "type": "uint256"
        }
      ],
      "stateMutability": "view",
      "type": "function"
    },
    {
      "inputs": [
        {
          "internalType": "address",
          "name": "spender",
          "type": "address"
        },
        {
          "internalType": "uint256",
          "name": "amount",
          "type": "uint256"
        }
      ],
      "name": "approve",
      "outputs": [
        {
          "internalType": "bool",
          "name": "",
          "type": "bool"
        }
      ],
      "stateMutability": "nonpayable",
      "type": "function"
    },
    {
      "inputs": [
        {
          "internalType": "address",
          "name": "account",
          "type": "address"
        }
      ],
      "name": "balanceOf",
      "outputs": [
        {
          "internalType": "uint256",
          "name": "",
          "type": "uint256"
        }
      ],
      "stateMutability": "view",
      "type": "function"
    },
    {
      "inputs": [],
      "name": "decimals",
      "outputs": [
        {
          "internalType": "uint8",
          "name": "",
          "type": "uint8"
        }
      ],
      "stateMutability": "view",
      "type": "function"
    },
    {
      "inputs": [
        {
          "internalType": "address",
          "name": "spender",
          "type": "address"
        },
        {
          "internalType": "uint256",
          "name": "subtractedValue",
          "type": "uint256"
        }
      ],
      "name": "decreaseAllowance",
      "outputs": [
        {
          "internalType": "bool",
          "name": "",
          "type": "bool"
        }
      ],
      "stateMutability": "nonpayable",
      "type": "function"
    },
    {
      "inputs": [
        {
          "internalType": "bytes32",
          "name": "",
          "type": "bytes32"
        }
      ],
      "name": "filmIdToDetailsMapping",
      "outputs": [
        {
          "internalType": "uint256",
          "name": "targetAmount",
          "type": "uint256"
        }
      ],
      "stateMutability": "view",
      "type": "function"
    },
    {
      "inputs": [
        {
          "internalType": "uint256",
          "name": "",
          "type": "uint256"
        }
      ],
      "name": "filmIds",
      "outputs": [
        {
          "internalType": "bytes32",
          "name": "",
          "type": "bytes32"
        }
      ],
      "stateMutability": "view",
      "type": "function"
    },
    {
      "inputs": [
        {
          "internalType": "address",
          "name": "",
          "type": "address"
        },
        {
          "internalType": "uint256",
          "name": "",
          "type": "uint256"
        }
      ],
      "name": "filmOwnerToFilmIdsMapping",
      "outputs": [
        {
          "internalType": "bytes32",
          "name": "",
          "type": "bytes32"
        }
      ],
      "stateMutability": "view",
      "type": "function"
    },
    {
      "inputs": [
        {
          "internalType": "bytes32",
          "name": "id",
          "type": "bytes32"
        }
      ],
      "name": "fundFilm",
      "outputs": [],
      "stateMutability": "payable",
      "type": "function"
    },
    {
      "inputs": [],
      "name": "getAllProjects",
      "outputs": [
        {
          "components": [
            {
              "internalType": "uint256",
              "name": "targetAmount",
              "type": "uint256"
            },
            {
              "internalType": "uint256",
              "name": "totalFunded",
              "type": "uint256"
            },
            {
              "internalType": "bytes32",
              "name": "id",
              "type": "bytes32"
            }
          ],
          "internalType": "struct FilmOwnerProjects.FilmData[]",
          "name": "",
          "type": "tuple[]"
        }
      ],
      "stateMutability": "view",
      "type": "function"
    },
    {
      "inputs": [
        {
          "internalType": "address",
          "name": "ownerAddress",
          "type": "address"
        }
      ],
      "name": "getProjectsOwned",
      "outputs": [
        {
          "internalType": "bytes32[]",
          "name": "",
          "type": "bytes32[]"
        }
      ],
      "stateMutability": "view",
      "type": "function"
    },
    {
      "inputs": [
        {
          "internalType": "bytes32",
          "name": "role",
          "type": "bytes32"
        }
      ],
      "name": "getRoleAdmin",
      "outputs": [
        {
          "internalType": "bytes32",
          "name": "",
          "type": "bytes32"
        }
      ],
      "stateMutability": "view",
      "type": "function"
    },
    {
      "inputs": [
        {
          "internalType": "bytes32",
          "name": "id",
          "type": "bytes32"
        }
      ],
      "name": "getTotalFundedAmount",
      "outputs": [
        {
          "internalType": "uint256",
          "name": "",
          "type": "uint256"
        }
      ],
      "stateMutability": "view",
      "type": "function"
    },
    {
      "inputs": [
        {
          "internalType": "bytes32",
          "name": "role",
          "type": "bytes32"
        },
        {
          "internalType": "address",
          "name": "account",
          "type": "address"
        }
      ],
      "name": "grantRole",
      "outputs": [],
      "stateMutability": "nonpayable",
      "type": "function"
    },
    {
      "inputs": [
        {
          "internalType": "bytes32",
          "name": "role",
          "type": "bytes32"
        },
        {
          "internalType": "address",
          "name": "account",
          "type": "address"
        }
      ],
      "name": "hasRole",
      "outputs": [
        {
          "internalType": "bool",
          "name": "",
          "type": "bool"
        }
      ],
      "stateMutability": "view",
      "type": "function"
    },
    {
      "inputs": [
        {
          "internalType": "address",
          "name": "spender",
          "type": "address"
        },
        {
          "internalType": "uint256",
          "name": "addedValue",
          "type": "uint256"
        }
      ],
      "name": "increaseAllowance",
      "outputs": [
        {
          "internalType": "bool",
          "name": "",
          "type": "bool"
        }
      ],
      "stateMutability": "nonpayable",
      "type": "function"
    },
    {
      "inputs": [
        {
          "internalType": "address",
          "name": "to",
          "type": "address"
        },
        {
          "internalType": "uint256",
          "name": "amount",
          "type": "uint256"
        }
      ],
      "name": "mint",
      "outputs": [],
      "stateMutability": "nonpayable",
      "type": "function"
    },
    {
      "inputs": [],
      "name": "name",
      "outputs": [
        {
          "internalType": "string",
          "name": "",
          "type": "string"
        }
      ],
      "stateMutability": "view",
      "type": "function"
    },
    {
      "inputs": [],
      "name": "owner",
      "outputs": [
        {
          "internalType": "address",
          "name": "",
          "type": "address"
        }
      ],
      "stateMutability": "view",
      "type": "function"
    },
    {
      "inputs": [
        {
          "internalType": "bytes32",
          "name": "role",
          "type": "bytes32"
        },
        {
          "internalType": "address",
          "name": "account",
          "type": "address"
        }
      ],
      "name": "renounceRole",
      "outputs": [],
      "stateMutability": "nonpayable",
      "type": "function"
    },
    {
      "inputs": [
        {
          "internalType": "bytes32",
          "name": "role",
          "type": "bytes32"
        },
        {
          "internalType": "address",
          "name": "account",
          "type": "address"
        }
      ],
      "name": "revokeRole",
      "outputs": [],
      "stateMutability": "nonpayable",
      "type": "function"
    },
    {
      "inputs": [
        {
          "internalType": "bytes4",
          "name": "interfaceId",
          "type": "bytes4"
        }
      ],
      "name": "supportsInterface",
      "outputs": [
        {
          "internalType": "bool",
          "name": "",
          "type": "bool"
        }
      ],
      "stateMutability": "view",
      "type": "function"
    },
    {
      "inputs": [],
      "name": "symbol",
      "outputs": [
        {
          "internalType": "string",
          "name": "",
          "type": "string"
        }
      ],
      "stateMutability": "view",
      "type": "function"
    },
    {
      "inputs": [],
      "name": "totalSupply",
      "outputs": [
        {
          "internalType": "uint256",
          "name": "",
          "type": "uint256"
        }
      ],
      "stateMutability": "view",
      "type": "function"
    },
    {
      "inputs": [
        {
          "internalType": "address",
          "name": "recipient",
          "type": "address"
        },
        {
          "internalType": "uint256",
          "name": "amount",
          "type": "uint256"
        }
      ],
      "name": "transfer",
      "outputs": [
        {
          "internalType": "bool",
          "name": "",
          "type": "bool"
        }
      ],
      "stateMutability": "nonpayable",
      "type": "function"
    },
    {
      "inputs": [
        {
          "internalType": "address",
          "name": "sender",
          "type": "address"
        },
        {
          "internalType": "address",
          "name": "recipient",
          "type": "address"
        },
        {
          "internalType": "uint256",
          "name": "amount",
          "type": "uint256"
        }
      ],
      "name": "transferFrom",
      "outputs": [
        {
          "internalType": "bool",
          "name": "",
          "type": "bool"
        }
      ],
      "stateMutability": "nonpayable",
      "type": "function"
    }
  ],
  "bytecode": "0x608060405260006008553480156200001657600080fd5b5060408051808201825260098152682930b6b0aa37b5b2b760b91b60208083019182528351808501909452600484526352414d4160e01b90840152815191929162000064916003916200015a565b5080516200007a9060049060208401906200015a565b5050600680546001600160a01b03191633908117909155620000a09150600090620000a6565b6200023d565b620000b28282620000b6565b5050565b60008281526005602090815260408083206001600160a01b038516845290915290205460ff16620000b25760008281526005602090815260408083206001600160a01b03851684529091529020805460ff19166001179055620001163390565b6001600160a01b0316816001600160a01b0316837f2f8788117e7eff1d82e926ec794901d17c78024a50270940304540a733656f0d60405160405180910390a45050565b828054620001689062000200565b90600052602060002090601f0160209004810192826200018c5760008555620001d7565b82601f10620001a757805160ff1916838001178555620001d7565b82800160010185558215620001d7579182015b82811115620001d7578251825591602001919060010190620001ba565b50620001e5929150620001e9565b5090565b5b80821115620001e55760008155600101620001ea565b600181811c908216806200021557607f821691505b602082108114156200023757634e487b7160e01b600052602260045260246000fd5b50919050565b611bb8806200024d6000396000f3fe6080604052600436106101c25760003560e01c806386791f37116100f7578063a3b8799a11610095578063d539139311610064578063d539139314610532578063d547741f14610566578063dd62ed3e14610586578063e7217b80146105cc57600080fd5b8063a3b8799a146104b2578063a457c2d7146104d2578063a9059cbb146104f2578063d1d954ca1461051257600080fd5b806391d14854116100d157806391d148541461044857806395d89b41146104685780639ab269a61461047d578063a217fddf1461049d57600080fd5b806386791f37146103d05780638c745b5f146103fd5780638da5cb5b1461041057600080fd5b80632f2ff15d11610164578063395093511161013e578063395093511461033857806340c10f191461035857806370a082311461037857806380d03829146103ae57600080fd5b80632f2ff15d146102da578063313ce567146102fc57806336568abe1461031857600080fd5b806318160ddd116101a057806318160ddd1461023e5780631ba24bed1461025d57806323b872dd1461028a578063248a9ca3146102aa57600080fd5b806301ffc9a7146101c757806306fdde03146101fc578063095ea7b31461021e575b600080fd5b3480156101d357600080fd5b506101e76101e2366004611935565b6105ec565b60405190151581526020015b60405180910390f35b34801561020857600080fd5b50610211610623565b6040516101f39190611a6f565b34801561022a57600080fd5b506101e76102393660046118a0565b6106b5565b34801561024a57600080fd5b506002545b6040519081526020016101f3565b34801561026957600080fd5b5061024f6102783660046118fb565b600b6020526000908152604090205481565b34801561029657600080fd5b506101e76102a5366004611865565b6106cb565b3480156102b657600080fd5b5061024f6102c53660046118fb565b60009081526005602052604090206001015490565b3480156102e657600080fd5b506102fa6102f5366004611913565b61077a565b005b34801561030857600080fd5b50604051601281526020016101f3565b34801561032457600080fd5b506102fa610333366004611913565b6107a5565b34801561034457600080fd5b506101e76103533660046118a0565b610823565b34801561036457600080fd5b506102fa6103733660046118a0565b61085f565b34801561038457600080fd5b5061024f610393366004611819565b6001600160a01b031660009081526020819052604090205490565b3480156103ba57600080fd5b506103c36108df565b6040516101f39190611a16565b3480156103dc57600080fd5b506103f06103eb366004611819565b610a6b565b6040516101f391906119d2565b6102fa61040b3660046118fb565b610ad7565b34801561041c57600080fd5b50600654610430906001600160a01b031681565b6040516001600160a01b0390911681526020016101f3565b34801561045457600080fd5b506101e7610463366004611913565b610c2c565b34801561047457600080fd5b50610211610c57565b34801561048957600080fd5b5061024f6104983660046118fb565b610c66565b3480156104a957600080fd5b5061024f600081565b3480156104be57600080fd5b5061024f6104cd3660046118fb565b610d08565b3480156104de57600080fd5b506101e76104ed3660046118a0565b610d29565b3480156104fe57600080fd5b506101e761050d3660046118a0565b610dc2565b34801561051e57600080fd5b506102fa61052d3660046118c9565b610dcf565b34801561053e57600080fd5b5061024f7f9f2df0fed2c77648de5860a4cc508cd0818c85b8b8a1ab4ceeef8d981c8956a681565b34801561057257600080fd5b506102fa610581366004611913565b610f0e565b34801561059257600080fd5b5061024f6105a1366004611833565b6001600160a01b03918216600090815260016020908152604080832093909416825291909152205490565b3480156105d857600080fd5b5061024f6105e73660046118a0565b610f34565b60006001600160e01b03198216637965db0b60e01b148061061d57506301ffc9a760e01b6001600160e01b03198316145b92915050565b60606003805461063290611b1c565b80601f016020809104026020016040519081016040528092919081815260200182805461065e90611b1c565b80156106ab5780601f10610680576101008083540402835291602001916106ab565b820191906000526020600020905b81548152906001019060200180831161068e57829003601f168201915b5050505050905090565b60006106c2338484610f65565b50600192915050565b60006106d8848484611089565b6001600160a01b0384166000908152600160209081526040808320338452909152902054828110156107625760405162461bcd60e51b815260206004820152602860248201527f45524332303a207472616e7366657220616d6f756e74206578636565647320616044820152676c6c6f77616e636560c01b60648201526084015b60405180910390fd5b61076f8533858403610f65565b506001949350505050565b6000828152600560205260409020600101546107968133611259565b6107a083836112bd565b505050565b6001600160a01b03811633146108155760405162461bcd60e51b815260206004820152602f60248201527f416363657373436f6e74726f6c3a2063616e206f6e6c792072656e6f756e636560448201526e103937b632b9903337b91039b2b63360891b6064820152608401610759565b61081f8282611343565b5050565b3360008181526001602090815260408083206001600160a01b038716845290915281205490916106c291859061085a908690611aa2565b610f65565b6108897f9f2df0fed2c77648de5860a4cc508cd0818c85b8b8a1ab4ceeef8d981c8956a633610c2c565b6108d55760405162461bcd60e51b815260206004820152601860248201527f43616c6c6572206973206e6f7420746865206d696e74657200000000000000006044820152606401610759565b61081f82826113aa565b6060600060085467ffffffffffffffff81111561090c57634e487b7160e01b600052604160045260246000fd5b60405190808252806020026020018201604052801561095757816020015b604080516060810182526000808252602080830182905292820152825260001990920191018161092a5790505b50905060005b600854811015610a655760006040518060600160405280600b6000600a868154811061099957634e487b7160e01b600052603260045260246000fd5b906000526020600020015481526020019081526020016000206000015481526020016109ef600a85815481106109df57634e487b7160e01b600052603260045260246000fd5b9060005260206000200154610c66565b8152602001600a8481548110610a1557634e487b7160e01b600052603260045260246000fd5b9060005260206000200154815250905080838381518110610a4657634e487b7160e01b600052603260045260246000fd5b6020026020010181905250508080610a5d90611b51565b91505061095d565b50919050565b6001600160a01b038116600090815260096020908152604091829020805483518184028101840190945280845260609392830182828015610acb57602002820191906000526020600020905b815481526020019060010190808311610ab7575b50505050509050919050565b610b4f33600b6000848152602001908152602001600020600201805480602002602001604051908101604052809291908181526020018280548015610b4557602002820191906000526020600020905b81546001600160a01b03168152600190910190602001808311610b27575b5050505050611489565b610b85576000818152600b602090815260408220600201805460018101825590835291200180546001600160a01b031916331790555b6000818152600b602052604090205434610b9e83610c66565b610ba89190611aa2565b1115610be45760405162461bcd60e51b815260206004820152600b60248201526a115e18d95cdcc8199d5b9960aa1b6044820152606401610759565b6000818152600b60209081526040808320338452600101909152902054610c0c903490611aa2565b6000918252600b6020908152604080842033855260010190915290912055565b60009182526005602090815260408084206001600160a01b0393909316845291905290205460ff1690565b60606004805461063290611b1c565b60008060005b6000848152600b6020526040902060020154811015610d01576000848152600b602052604081206002810180546001909201929184908110610cbe57634e487b7160e01b600052603260045260246000fd5b60009182526020808320909101546001600160a01b03168352820192909252604001902054610ced9083611aa2565b915080610cf981611b51565b915050610c6c565b5092915050565b600a8181548110610d1857600080fd5b600091825260209091200154905081565b3360009081526001602090815260408083206001600160a01b038616845290915281205482811015610dab5760405162461bcd60e51b815260206004820152602560248201527f45524332303a2064656372656173656420616c6c6f77616e63652062656c6f77604482015264207a65726f60d81b6064820152608401610759565b610db83385858403610f65565b5060019392505050565b60006106c2338484611089565b6006546001600160a01b03163314610e205760405162461bcd60e51b8152602060048201526014602482015273155b985d5d1a1bdc9a5cd959081c995c5d595cdd60621b6044820152606401610759565b610e82836007805480602002602001604051908101604052809291908181526020018280548015610b45576020028201919060005260206000209081546001600160a01b03168152600190910190602001808311610b27575050505050611489565b610e8f57610e8f836114fd565b600854610e9d906001611aa2565b600855600a805460018181019092557fc65a7bb8d6351c1cf70c95a316cc6a92839c986682d98bc35f958f4883f9d2a8018290556001600160a01b039093166000908152600960209081526040808320805496870181558352818320909501839055918152600b9091529190912055565b600082815260056020526040902060010154610f2a8133611259565b6107a08383611343565b60096020528160005260406000208181548110610f5057600080fd5b90600052602060002001600091509150505481565b6001600160a01b038316610fc75760405162461bcd60e51b8152602060048201526024808201527f45524332303a20617070726f76652066726f6d20746865207a65726f206164646044820152637265737360e01b6064820152608401610759565b6001600160a01b0382166110285760405162461bcd60e51b815260206004820152602260248201527f45524332303a20617070726f766520746f20746865207a65726f206164647265604482015261737360f01b6064820152608401610759565b6001600160a01b0383811660008181526001602090815260408083209487168084529482529182902085905590518481527f8c5be1e5ebec7d5bd14f71427d1e84f3dd0314c0f7b2291e5b200ac8c7c3b925910160405180910390a3505050565b6001600160a01b0383166110ed5760405162461bcd60e51b815260206004820152602560248201527f45524332303a207472616e736665722066726f6d20746865207a65726f206164604482015264647265737360d81b6064820152608401610759565b6001600160a01b03821661114f5760405162461bcd60e51b815260206004820152602360248201527f45524332303a207472616e7366657220746f20746865207a65726f206164647260448201526265737360e81b6064820152608401610759565b6001600160a01b038316600090815260208190526040902054818110156111c75760405162461bcd60e51b815260206004820152602660248201527f45524332303a207472616e7366657220616d6f756e7420657863656564732062604482015265616c616e636560d01b6064820152608401610759565b6001600160a01b038085166000908152602081905260408082208585039055918516815290812080548492906111fe908490611aa2565b92505081905550826001600160a01b0316846001600160a01b03167fddf252ad1be2c89b69c2b068fc378daa952ba7f163c4a11628f55a4df523b3ef8460405161124a91815260200190565b60405180910390a35b50505050565b6112638282610c2c565b61081f5761127b816001600160a01b031660146115b4565b6112868360206115b4565b60405160200161129792919061195d565b60408051601f198184030181529082905262461bcd60e51b825261075991600401611a6f565b6112c78282610c2c565b61081f5760008281526005602090815260408083206001600160a01b03851684529091529020805460ff191660011790556112ff3390565b6001600160a01b0316816001600160a01b0316837f2f8788117e7eff1d82e926ec794901d17c78024a50270940304540a733656f0d60405160405180910390a45050565b61134d8282610c2c565b1561081f5760008281526005602090815260408083206001600160a01b0385168085529252808320805460ff1916905551339285917ff6391f5c32d9c69d2a47ea670b442974b53935d1edc7fd64eb21e047a839171b9190a45050565b6001600160a01b0382166114005760405162461bcd60e51b815260206004820152601f60248201527f45524332303a206d696e7420746f20746865207a65726f2061646472657373006044820152606401610759565b80600260008282546114129190611aa2565b90915550506001600160a01b0382166000908152602081905260408120805483929061143f908490611aa2565b90915550506040518181526001600160a01b038316906000907fddf252ad1be2c89b69c2b068fc378daa952ba7f163c4a11628f55a4df523b3ef9060200160405180910390a35050565b6000805b82518110156114f357836001600160a01b03168382815181106114c057634e487b7160e01b600052603260045260246000fd5b60200260200101516001600160a01b031614156114e157600191505061061d565b6114ec600182611aa2565b905061148d565b5060009392505050565b61155f816007805480602002602001604051908101604052809291908181526020018280548015610b45576020028201919060005260206000209081546001600160a01b03168152600190910190602001808311610b27575050505050611489565b156115b157604080516064808252610ca082019092529060208201610c80803683375050506001600160a01b0382166000908152600960209081526040909120825161081f939192919091019061179d565b50565b606060006115c3836002611aba565b6115ce906002611aa2565b67ffffffffffffffff8111156115f457634e487b7160e01b600052604160045260246000fd5b6040519080825280601f01601f19166020018201604052801561161e576020820181803683370190505b509050600360fc1b8160008151811061164757634e487b7160e01b600052603260045260246000fd5b60200101906001600160f81b031916908160001a905350600f60fb1b8160018151811061168457634e487b7160e01b600052603260045260246000fd5b60200101906001600160f81b031916908160001a90535060006116a8846002611aba565b6116b3906001611aa2565b90505b6001811115611747576f181899199a1a9b1b9c1cb0b131b232b360811b85600f16601081106116f557634e487b7160e01b600052603260045260246000fd5b1a60f81b82828151811061171957634e487b7160e01b600052603260045260246000fd5b60200101906001600160f81b031916908160001a90535060049490941c9361174081611b05565b90506116b6565b5083156117965760405162461bcd60e51b815260206004820181905260248201527f537472696e67733a20686578206c656e67746820696e73756666696369656e746044820152606401610759565b9392505050565b8280548282559060005260206000209081019282156117d8579160200282015b828111156117d85782518255916020019190600101906117bd565b506117e49291506117e8565b5090565b5b808211156117e457600081556001016117e9565b80356001600160a01b038116811461181457600080fd5b919050565b60006020828403121561182a578081fd5b611796826117fd565b60008060408385031215611845578081fd5b61184e836117fd565b915061185c602084016117fd565b90509250929050565b600080600060608486031215611879578081fd5b611882846117fd565b9250611890602085016117fd565b9150604084013590509250925092565b600080604083850312156118b2578182fd5b6118bb836117fd565b946020939093013593505050565b6000806000606084860312156118dd578283fd5b6118e6846117fd565b95602085013595506040909401359392505050565b60006020828403121561190c578081fd5b5035919050565b60008060408385031215611925578182fd5b8235915061185c602084016117fd565b600060208284031215611946578081fd5b81356001600160e01b031981168114611796578182fd5b7f416363657373436f6e74726f6c3a206163636f756e7420000000000000000000815260008351611995816017850160208801611ad9565b7001034b99036b4b9b9b4b733903937b6329607d1b60179184019182015283516119c6816028840160208801611ad9565b01602801949350505050565b6020808252825182820181905260009190848201906040850190845b81811015611a0a578351835292840192918401916001016119ee565b50909695505050505050565b602080825282518282018190526000919060409081850190868401855b82811015611a625781518051855286810151878601528501518585015260609093019290850190600101611a33565b5091979650505050505050565b6020815260008251806020840152611a8e816040850160208701611ad9565b601f01601f19169190910160400192915050565b60008219821115611ab557611ab5611b6c565b500190565b6000816000190483118215151615611ad457611ad4611b6c565b500290565b60005b83811015611af4578181015183820152602001611adc565b838111156112535750506000910152565b600081611b1457611b14611b6c565b506000190190565b600181811c90821680611b3057607f821691505b60208210811415610a6557634e487b7160e01b600052602260045260246000fd5b6000600019821415611b6557611b65611b6c565b5060010190565b634e487b7160e01b600052601160045260246000fdfea2646970667358221220ffbf58f9e57bb1378b2f8d39e13416dccd55049dfdc30a67f3aaddcf3f3cacd664736f6c63430008040033",
  "linkReferences": {},
  "deployedLinkReferences": {}
}