{
  "_format": "hh-sol-artifact-1",
  "contractName": "RamaToken",
  "sourceName": "contracts/RamaToken.sol",
  "abi": [
    {
      "inputs": [],
      "stateMutability": "nonpayable",
      "type": "constructor"
    },
    {
      "anonymous": false,
      "inputs": [
        {
          "indexed": true,
          "internalType": "address",
          "name": "owner",
          "type": "address"
        },
        {
          "indexed": true,
          "internalType": "address",
          "name": "spender",
          "type": "address"
        },
        {
          "indexed": false,
          "internalType": "uint256",
          "name": "value",
          "type": "uint256"
        }
      ],
      "name": "Approval",
      "type": "event"
    },
    {
      "anonymous": false,
      "inputs": [
        {
          "indexed": true,
          "internalType": "bytes32",
          "name": "role",
          "type": "bytes32"
        },
        {
          "indexed": true,
          "internalType": "bytes32",
          "name": "previousAdminRole",
          "type": "bytes32"
        },
        {
          "indexed": true,
          "internalType": "bytes32",
          "name": "newAdminRole",
          "type": "bytes32"
        }
      ],
      "name": "RoleAdminChanged",
      "type": "event"
    },
    {
      "anonymous": false,
      "inputs": [
        {
          "indexed": true,
          "internalType": "bytes32",
          "name": "role",
          "type": "bytes32"
        },
        {
          "indexed": true,
          "internalType": "address",
          "name": "account",
          "type": "address"
        },
        {
          "indexed": true,
          "internalType": "address",
          "name": "sender",
          "type": "address"
        }
      ],
      "name": "RoleGranted",
      "type": "event"
    },
    {
      "anonymous": false,
      "inputs": [
        {
          "indexed": true,
          "internalType": "bytes32",
          "name": "role",
          "type": "bytes32"
        },
        {
          "indexed": true,
          "internalType": "address",
          "name": "account",
          "type": "address"
        },
        {
          "indexed": true,
          "internalType": "address",
          "name": "sender",
          "type": "address"
        }
      ],
      "name": "RoleRevoked",
      "type": "event"
    },
    {
      "anonymous": false,
      "inputs": [
        {
          "indexed": true,
          "internalType": "address",
          "name": "from",
          "type": "address"
        },
        {
          "indexed": true,
          "internalType": "address",
          "name": "to",
          "type": "address"
        },
        {
          "indexed": false,
          "internalType": "uint256",
          "name": "value",
          "type": "uint256"
        }
      ],
      "name": "Transfer",
      "type": "event"
    },
    {
      "inputs": [],
      "name": "DEFAULT_ADMIN_ROLE",
      "outputs": [
        {
          "internalType": "bytes32",
          "name": "",
          "type": "bytes32"
        }
      ],
      "stateMutability": "view",
      "type": "function"
    },
    {
      "inputs": [],
      "name": "MINTER_ROLE",
      "outputs": [
        {
          "internalType": "bytes32",
          "name": "",
          "type": "bytes32"
        }
      ],
      "stateMutability": "view",
      "type": "function"
    },
    {
      "inputs": [
        {
          "internalType": "address",
          "name": "filmOwnerAddress",
          "type": "address"
        },
        {
          "internalType": "uint256",
          "name": "fundingGoal",
          "type": "uint256"
        }
      ],
      "name": "addFilm",
      "outputs": [],
      "stateMutability": "nonpayable",
      "type": "function"
    },
    {
      "inputs": [
        {
          "internalType": "address",
          "name": "owner",
          "type": "address"
        },
        {
          "internalType": "address",
          "name": "spender",
          "type": "address"
        }
      ],
      "name": "allowance",
      "outputs": [
        {
          "internalType": "uint256",
          "name": "",
          "type": "uint256"
        }
      ],
      "stateMutability": "view",
      "type": "function"
    },
    {
      "inputs": [
        {
          "internalType": "address",
          "name": "spender",
          "type": "address"
        },
        {
          "internalType": "uint256",
          "name": "amount",
          "type": "uint256"
        }
      ],
      "name": "approve",
      "outputs": [
        {
          "internalType": "bool",
          "name": "",
          "type": "bool"
        }
      ],
      "stateMutability": "nonpayable",
      "type": "function"
    },
    {
      "inputs": [
        {
          "internalType": "address",
          "name": "account",
          "type": "address"
        }
      ],
      "name": "balanceOf",
      "outputs": [
        {
          "internalType": "uint256",
          "name": "",
          "type": "uint256"
        }
      ],
      "stateMutability": "view",
      "type": "function"
    },
    {
      "inputs": [],
      "name": "decimals",
      "outputs": [
        {
          "internalType": "uint8",
          "name": "",
          "type": "uint8"
        }
      ],
      "stateMutability": "view",
      "type": "function"
    },
    {
      "inputs": [
        {
          "internalType": "address",
          "name": "spender",
          "type": "address"
        },
        {
          "internalType": "uint256",
          "name": "subtractedValue",
          "type": "uint256"
        }
      ],
      "name": "decreaseAllowance",
      "outputs": [
        {
          "internalType": "bool",
          "name": "",
          "type": "bool"
        }
      ],
      "stateMutability": "nonpayable",
      "type": "function"
    },
    {
      "inputs": [
        {
          "internalType": "uint256",
          "name": "",
          "type": "uint256"
        }
      ],
      "name": "filmIdToDetailsMapping",
      "outputs": [
        {
          "internalType": "uint256",
          "name": "targetAmount",
          "type": "uint256"
        }
      ],
      "stateMutability": "view",
      "type": "function"
    },
    {
      "inputs": [
        {
          "internalType": "address",
          "name": "",
          "type": "address"
        },
        {
          "internalType": "uint256",
          "name": "",
          "type": "uint256"
        }
      ],
      "name": "filmOwnerToFilmIdsMapping",
      "outputs": [
        {
          "internalType": "uint256",
          "name": "",
          "type": "uint256"
        }
      ],
      "stateMutability": "view",
      "type": "function"
    },
    {
      "inputs": [
        {
          "internalType": "uint256",
          "name": "id",
          "type": "uint256"
        }
      ],
      "name": "fundFilm",
      "outputs": [],
      "stateMutability": "payable",
      "type": "function"
    },
    {
      "inputs": [],
      "name": "getAllProjects",
      "outputs": [
        {
          "components": [
            {
              "internalType": "uint256",
              "name": "targetAmount",
              "type": "uint256"
            },
            {
              "internalType": "uint256",
              "name": "totalFunded",
              "type": "uint256"
            },
            {
              "internalType": "uint256",
              "name": "id",
              "type": "uint256"
            }
          ],
          "internalType": "struct FilmOwnerProjects.FilmData[]",
          "name": "",
          "type": "tuple[]"
        }
      ],
      "stateMutability": "view",
      "type": "function"
    },
    {
      "inputs": [
        {
          "internalType": "address",
          "name": "ownerAddress",
          "type": "address"
        }
      ],
      "name": "getProjectsOwned",
      "outputs": [
        {
          "internalType": "uint256[]",
          "name": "",
          "type": "uint256[]"
        }
      ],
      "stateMutability": "view",
      "type": "function"
    },
    {
      "inputs": [
        {
          "internalType": "bytes32",
          "name": "role",
          "type": "bytes32"
        }
      ],
      "name": "getRoleAdmin",
      "outputs": [
        {
          "internalType": "bytes32",
          "name": "",
          "type": "bytes32"
        }
      ],
      "stateMutability": "view",
      "type": "function"
    },
    {
      "inputs": [
        {
          "internalType": "uint256",
          "name": "id",
          "type": "uint256"
        }
      ],
      "name": "getTotalFundedAmount",
      "outputs": [
        {
          "internalType": "uint256",
          "name": "",
          "type": "uint256"
        }
      ],
      "stateMutability": "view",
      "type": "function"
    },
    {
      "inputs": [
        {
          "internalType": "bytes32",
          "name": "role",
          "type": "bytes32"
        },
        {
          "internalType": "address",
          "name": "account",
          "type": "address"
        }
      ],
      "name": "grantRole",
      "outputs": [],
      "stateMutability": "nonpayable",
      "type": "function"
    },
    {
      "inputs": [
        {
          "internalType": "bytes32",
          "name": "role",
          "type": "bytes32"
        },
        {
          "internalType": "address",
          "name": "account",
          "type": "address"
        }
      ],
      "name": "hasRole",
      "outputs": [
        {
          "internalType": "bool",
          "name": "",
          "type": "bool"
        }
      ],
      "stateMutability": "view",
      "type": "function"
    },
    {
      "inputs": [
        {
          "internalType": "address",
          "name": "spender",
          "type": "address"
        },
        {
          "internalType": "uint256",
          "name": "addedValue",
          "type": "uint256"
        }
      ],
      "name": "increaseAllowance",
      "outputs": [
        {
          "internalType": "bool",
          "name": "",
          "type": "bool"
        }
      ],
      "stateMutability": "nonpayable",
      "type": "function"
    },
    {
      "inputs": [
        {
          "internalType": "address",
          "name": "to",
          "type": "address"
        },
        {
          "internalType": "uint256",
          "name": "amount",
          "type": "uint256"
        }
      ],
      "name": "mint",
      "outputs": [],
      "stateMutability": "nonpayable",
      "type": "function"
    },
    {
      "inputs": [],
      "name": "name",
      "outputs": [
        {
          "internalType": "string",
          "name": "",
          "type": "string"
        }
      ],
      "stateMutability": "view",
      "type": "function"
    },
    {
      "inputs": [],
      "name": "owner",
      "outputs": [
        {
          "internalType": "address",
          "name": "",
          "type": "address"
        }
      ],
      "stateMutability": "view",
      "type": "function"
    },
    {
      "inputs": [
        {
          "internalType": "bytes32",
          "name": "role",
          "type": "bytes32"
        },
        {
          "internalType": "address",
          "name": "account",
          "type": "address"
        }
      ],
      "name": "renounceRole",
      "outputs": [],
      "stateMutability": "nonpayable",
      "type": "function"
    },
    {
      "inputs": [
        {
          "internalType": "bytes32",
          "name": "role",
          "type": "bytes32"
        },
        {
          "internalType": "address",
          "name": "account",
          "type": "address"
        }
      ],
      "name": "revokeRole",
      "outputs": [],
      "stateMutability": "nonpayable",
      "type": "function"
    },
    {
      "inputs": [
        {
          "internalType": "bytes4",
          "name": "interfaceId",
          "type": "bytes4"
        }
      ],
      "name": "supportsInterface",
      "outputs": [
        {
          "internalType": "bool",
          "name": "",
          "type": "bool"
        }
      ],
      "stateMutability": "view",
      "type": "function"
    },
    {
      "inputs": [],
      "name": "symbol",
      "outputs": [
        {
          "internalType": "string",
          "name": "",
          "type": "string"
        }
      ],
      "stateMutability": "view",
      "type": "function"
    },
    {
      "inputs": [],
      "name": "totalSupply",
      "outputs": [
        {
          "internalType": "uint256",
          "name": "",
          "type": "uint256"
        }
      ],
      "stateMutability": "view",
      "type": "function"
    },
    {
      "inputs": [
        {
          "internalType": "address",
          "name": "recipient",
          "type": "address"
        },
        {
          "internalType": "uint256",
          "name": "amount",
          "type": "uint256"
        }
      ],
      "name": "transfer",
      "outputs": [
        {
          "internalType": "bool",
          "name": "",
          "type": "bool"
        }
      ],
      "stateMutability": "nonpayable",
      "type": "function"
    },
    {
      "inputs": [
        {
          "internalType": "address",
          "name": "sender",
          "type": "address"
        },
        {
          "internalType": "address",
          "name": "recipient",
          "type": "address"
        },
        {
          "internalType": "uint256",
          "name": "amount",
          "type": "uint256"
        }
      ],
      "name": "transferFrom",
      "outputs": [
        {
          "internalType": "bool",
          "name": "",
          "type": "bool"
        }
      ],
      "stateMutability": "nonpayable",
      "type": "function"
    }
  ],
  "bytecode": "0x608060405260006008553480156200001657600080fd5b5060408051808201825260098152682930b6b0aa37b5b2b760b91b60208083019182528351808501909452600484526352414d4160e01b90840152815191929162000064916003916200015a565b5080516200007a9060049060208401906200015a565b5050600680546001600160a01b03191633908117909155620000a09150600090620000a6565b6200023d565b620000b28282620000b6565b5050565b60008281526005602090815260408083206001600160a01b038516845290915290205460ff16620000b25760008281526005602090815260408083206001600160a01b03851684529091529020805460ff19166001179055620001163390565b6001600160a01b0316816001600160a01b0316837f2f8788117e7eff1d82e926ec794901d17c78024a50270940304540a733656f0d60405160405180910390a45050565b828054620001689062000200565b90600052602060002090601f0160209004810192826200018c5760008555620001d7565b82601f10620001a757805160ff1916838001178555620001d7565b82800160010185558215620001d7579182015b82811115620001d7578251825591602001919060010190620001ba565b50620001e5929150620001e9565b5090565b5b80821115620001e55760008155600101620001ea565b600181811c908216806200021557607f821691505b602082108114156200023757634e487b7160e01b600052602260045260246000fd5b50919050565b611af7806200024d6000396000f3fe6080604052600436106101b75760003560e01c806380d03829116100ec578063a9059cbb1161008a578063dd62ed3e11610064578063dd62ed3e1461051b578063e7217b8014610561578063ee38daa614610581578063f77d079a1461059457600080fd5b8063a9059cbb146104a7578063d5391393146104c7578063d547741f146104fb57600080fd5b806391d14854116100c657806391d148541461043d57806395d89b411461045d578063a217fddf14610472578063a457c2d71461048757600080fd5b806380d03829146103b657806386791f37146103d85780638da5cb5b1461040557600080fd5b80632f2ff15d116101595780633950935111610133578063395093511461032057806340c10f191461034057806357eb23da1461036057806370a082311461038057600080fd5b80632f2ff15d146102c4578063313ce567146102e457806336568abe1461030057600080fd5b80631306dde1116101955780631306dde11461023357806318160ddd1461025557806323b872dd14610274578063248a9ca31461029457600080fd5b806301ffc9a7146101bc57806306fdde03146101f1578063095ea7b314610213575b600080fd5b3480156101c857600080fd5b506101dc6101d736600461185d565b6105c1565b60405190151581526020015b60405180910390f35b3480156101fd57600080fd5b506102066105f8565b6040516101e89190611997565b34801561021f57600080fd5b506101dc61022e3660046117fa565b61068a565b34801561023f57600080fd5b5061025361024e3660046117fa565b6106a0565b005b34801561026157600080fd5b506002545b6040519081526020016101e8565b34801561028057600080fd5b506101dc61028f3660046117bf565b6107b8565b3480156102a057600080fd5b506102666102af366004611823565b60009081526005602052604090206001015490565b3480156102d057600080fd5b506102536102df36600461183b565b610862565b3480156102f057600080fd5b50604051601281526020016101e8565b34801561030c57600080fd5b5061025361031b36600461183b565b61088d565b34801561032c57600080fd5b506101dc61033b3660046117fa565b61090b565b34801561034c57600080fd5b5061025361035b3660046117fa565b610947565b34801561036c57600080fd5b5061026661037b366004611823565b6109c7565b34801561038c57600080fd5b5061026661039b366004611773565b6001600160a01b031660009081526020819052604090205490565b3480156103c257600080fd5b506103cb610a69565b6040516101e891906118fa565b3480156103e457600080fd5b506103f86103f3366004611773565b610b7c565b6040516101e89190611953565b34801561041157600080fd5b50600654610425906001600160a01b031681565b6040516001600160a01b0390911681526020016101e8565b34801561044957600080fd5b506101dc61045836600461183b565b610be8565b34801561046957600080fd5b50610206610c13565b34801561047e57600080fd5b50610266600081565b34801561049357600080fd5b506101dc6104a23660046117fa565b610c22565b3480156104b357600080fd5b506101dc6104c23660046117fa565b610cbb565b3480156104d357600080fd5b506102667f9f2df0fed2c77648de5860a4cc508cd0818c85b8b8a1ab4ceeef8d981c8956a681565b34801561050757600080fd5b5061025361051636600461183b565b610cc8565b34801561052757600080fd5b5061026661053636600461178d565b6001600160a01b03918216600090815260016020908152604080832093909416825291909152205490565b34801561056d57600080fd5b5061026661057c3660046117fa565b610cee565b61025361058f366004611823565b610d1f565b3480156105a057600080fd5b506102666105af366004611823565b600a6020526000908152604090205481565b60006001600160e01b03198216637965db0b60e01b14806105f257506301ffc9a760e01b6001600160e01b03198316145b92915050565b60606003805461060790611a5b565b80601f016020809104026020016040519081016040528092919081815260200182805461063390611a5b565b80156106805780601f1061065557610100808354040283529160200191610680565b820191906000526020600020905b81548152906001019060200180831161066357829003601f168201915b5050505050905090565b6000610697338484610ebf565b50600192915050565b6006546001600160a01b031633146106f65760405162461bcd60e51b8152602060048201526014602482015273155b985d5d1a1bdc9a5cd959081c995c5d595cdd60621b60448201526064015b60405180910390fd5b61075a82600780548060200260200160405190810160405280929190818152602001828054801561075057602002820191906000526020600020905b81546001600160a01b03168152600190910190602001808311610732575b5050505050610fe3565b6107675761076782611057565b6008546107759060016119ca565b60088181556001600160a01b0390931660009081526009602090815260408083208054600181018255908452828420019390935593548152600a90935290912055565b60006107c584848461110e565b6001600160a01b03841660009081526001602090815260408083203384529091529020548281101561084a5760405162461bcd60e51b815260206004820152602860248201527f45524332303a207472616e7366657220616d6f756e74206578636565647320616044820152676c6c6f77616e636560c01b60648201526084016106ed565b6108578533858403610ebf565b506001949350505050565b60008281526005602052604090206001015461087e81336112de565b6108888383611342565b505050565b6001600160a01b03811633146108fd5760405162461bcd60e51b815260206004820152602f60248201527f416363657373436f6e74726f6c3a2063616e206f6e6c792072656e6f756e636560448201526e103937b632b9903337b91039b2b63360891b60648201526084016106ed565b61090782826113c8565b5050565b3360008181526001602090815260408083206001600160a01b038716845290915281205490916106979185906109429086906119ca565b610ebf565b6109717f9f2df0fed2c77648de5860a4cc508cd0818c85b8b8a1ab4ceeef8d981c8956a633610be8565b6109bd5760405162461bcd60e51b815260206004820152601860248201527f43616c6c6572206973206e6f7420746865206d696e746572000000000000000060448201526064016106ed565b610907828261142f565b60008060005b6000848152600a6020526040902060020154811015610a62576000848152600a602052604081206002810180546001909201929184908110610a1f57634e487b7160e01b600052603260045260246000fd5b60009182526020808320909101546001600160a01b03168352820192909252604001902054610a4e90836119ca565b915080610a5a81611a90565b9150506109cd565b5092915050565b6060600060085467ffffffffffffffff811115610a9657634e487b7160e01b600052604160045260246000fd5b604051908082528060200260200182016040528015610aeb57816020015b610ad860405180606001604052806000815260200160008152602001600081525090565b815260200190600190039081610ab45790505b50905060015b6008548111610b7657604080516060810182526000838152600a6020908152928120548252918101610b22846109c7565b815260200183905290508083610b39600185611a01565b81518110610b5757634e487b7160e01b600052603260045260246000fd5b6020026020010181905250508080610b6e90611a90565b915050610af1565b50919050565b6001600160a01b038116600090815260096020908152604091829020805483518184028101840190945280845260609392830182828015610bdc57602002820191906000526020600020905b815481526020019060010190808311610bc8575b50505050509050919050565b60009182526005602090815260408084206001600160a01b0393909316845291905290205460ff1690565b60606004805461060790611a5b565b3360009081526001602090815260408083206001600160a01b038616845290915281205482811015610ca45760405162461bcd60e51b815260206004820152602560248201527f45524332303a2064656372656173656420616c6c6f77616e63652062656c6f77604482015264207a65726f60d81b60648201526084016106ed565b610cb13385858403610ebf565b5060019392505050565b600061069733848461110e565b600082815260056020526040902060010154610ce481336112de565b61088883836113c8565b60096020528160005260406000208181548110610d0a57600080fd5b90600052602060002001600091509150505481565b6008548111158015610d2f575060015b610d6d5760405162461bcd60e51b815260206004820152600f60248201526e125b9d985b1a5908199a5b1b481a59608a1b60448201526064016106ed565b610de333600a6000848152602001908152602001600020600201805480602002602001604051908101604052809291908181526020018280548015610750576020028201919060005260206000209081546001600160a01b03168152600190910190602001808311610732575050505050610fe3565b610e19576000818152600a602090815260408220600201805460018101825590835291200180546001600160a01b031916331790555b6000818152600a602052604090205434610e32836109c7565b610e3c91906119ca565b10610e775760405162461bcd60e51b815260206004820152600b60248201526a115e18d95cdcc8199d5b9960aa1b60448201526064016106ed565b6000818152600a60209081526040808320338452600101909152902054610e9f9034906119ca565b6000918252600a6020908152604080842033855260010190915290912055565b6001600160a01b038316610f215760405162461bcd60e51b8152602060048201526024808201527f45524332303a20617070726f76652066726f6d20746865207a65726f206164646044820152637265737360e01b60648201526084016106ed565b6001600160a01b038216610f825760405162461bcd60e51b815260206004820152602260248201527f45524332303a20617070726f766520746f20746865207a65726f206164647265604482015261737360f01b60648201526084016106ed565b6001600160a01b0383811660008181526001602090815260408083209487168084529482529182902085905590518481527f8c5be1e5ebec7d5bd14f71427d1e84f3dd0314c0f7b2291e5b200ac8c7c3b925910160405180910390a3505050565b6000805b825181101561104d57836001600160a01b031683828151811061101a57634e487b7160e01b600052603260045260246000fd5b60200260200101516001600160a01b0316141561103b5760019150506105f2565b6110466001826119ca565b9050610fe7565b5060009392505050565b6110b9816007805480602002602001604051908101604052809291908181526020018280548015610750576020028201919060005260206000209081546001600160a01b03168152600190910190602001808311610732575050505050610fe3565b1561110b57604080516064808252610ca082019092529060208201610c80803683375050506001600160a01b0382166000908152600960209081526040909120825161090793919291909101906116f7565b50565b6001600160a01b0383166111725760405162461bcd60e51b815260206004820152602560248201527f45524332303a207472616e736665722066726f6d20746865207a65726f206164604482015264647265737360d81b60648201526084016106ed565b6001600160a01b0382166111d45760405162461bcd60e51b815260206004820152602360248201527f45524332303a207472616e7366657220746f20746865207a65726f206164647260448201526265737360e81b60648201526084016106ed565b6001600160a01b0383166000908152602081905260409020548181101561124c5760405162461bcd60e51b815260206004820152602660248201527f45524332303a207472616e7366657220616d6f756e7420657863656564732062604482015265616c616e636560d01b60648201526084016106ed565b6001600160a01b038085166000908152602081905260408082208585039055918516815290812080548492906112839084906119ca565b92505081905550826001600160a01b0316846001600160a01b03167fddf252ad1be2c89b69c2b068fc378daa952ba7f163c4a11628f55a4df523b3ef846040516112cf91815260200190565b60405180910390a35b50505050565b6112e88282610be8565b61090757611300816001600160a01b0316601461150e565b61130b83602061150e565b60405160200161131c929190611885565b60408051601f198184030181529082905262461bcd60e51b82526106ed91600401611997565b61134c8282610be8565b6109075760008281526005602090815260408083206001600160a01b03851684529091529020805460ff191660011790556113843390565b6001600160a01b0316816001600160a01b0316837f2f8788117e7eff1d82e926ec794901d17c78024a50270940304540a733656f0d60405160405180910390a45050565b6113d28282610be8565b156109075760008281526005602090815260408083206001600160a01b0385168085529252808320805460ff1916905551339285917ff6391f5c32d9c69d2a47ea670b442974b53935d1edc7fd64eb21e047a839171b9190a45050565b6001600160a01b0382166114855760405162461bcd60e51b815260206004820152601f60248201527f45524332303a206d696e7420746f20746865207a65726f20616464726573730060448201526064016106ed565b806002600082825461149791906119ca565b90915550506001600160a01b038216600090815260208190526040812080548392906114c49084906119ca565b90915550506040518181526001600160a01b038316906000907fddf252ad1be2c89b69c2b068fc378daa952ba7f163c4a11628f55a4df523b3ef9060200160405180910390a35050565b6060600061151d8360026119e2565b6115289060026119ca565b67ffffffffffffffff81111561154e57634e487b7160e01b600052604160045260246000fd5b6040519080825280601f01601f191660200182016040528015611578576020820181803683370190505b509050600360fc1b816000815181106115a157634e487b7160e01b600052603260045260246000fd5b60200101906001600160f81b031916908160001a905350600f60fb1b816001815181106115de57634e487b7160e01b600052603260045260246000fd5b60200101906001600160f81b031916908160001a90535060006116028460026119e2565b61160d9060016119ca565b90505b60018111156116a1576f181899199a1a9b1b9c1cb0b131b232b360811b85600f166010811061164f57634e487b7160e01b600052603260045260246000fd5b1a60f81b82828151811061167357634e487b7160e01b600052603260045260246000fd5b60200101906001600160f81b031916908160001a90535060049490941c9361169a81611a44565b9050611610565b5083156116f05760405162461bcd60e51b815260206004820181905260248201527f537472696e67733a20686578206c656e67746820696e73756666696369656e7460448201526064016106ed565b9392505050565b828054828255906000526020600020908101928215611732579160200282015b82811115611732578251825591602001919060010190611717565b5061173e929150611742565b5090565b5b8082111561173e5760008155600101611743565b80356001600160a01b038116811461176e57600080fd5b919050565b600060208284031215611784578081fd5b6116f082611757565b6000806040838503121561179f578081fd5b6117a883611757565b91506117b660208401611757565b90509250929050565b6000806000606084860312156117d3578081fd5b6117dc84611757565b92506117ea60208501611757565b9150604084013590509250925092565b6000806040838503121561180c578182fd5b61181583611757565b946020939093013593505050565b600060208284031215611834578081fd5b5035919050565b6000806040838503121561184d578182fd5b823591506117b660208401611757565b60006020828403121561186e578081fd5b81356001600160e01b0319811681146116f0578182fd5b7f416363657373436f6e74726f6c3a206163636f756e74200000000000000000008152600083516118bd816017850160208801611a18565b7001034b99036b4b9b9b4b733903937b6329607d1b60179184019182015283516118ee816028840160208801611a18565b01602801949350505050565b602080825282518282018190526000919060409081850190868401855b828110156119465781518051855286810151878601528501518585015260609093019290850190600101611917565b5091979650505050505050565b6020808252825182820181905260009190848201906040850190845b8181101561198b5783518352928401929184019160010161196f565b50909695505050505050565b60208152600082518060208401526119b6816040850160208701611a18565b601f01601f19169190910160400192915050565b600082198211156119dd576119dd611aab565b500190565b60008160001904831182151516156119fc576119fc611aab565b500290565b600082821015611a1357611a13611aab565b500390565b60005b83811015611a33578181015183820152602001611a1b565b838111156112d85750506000910152565b600081611a5357611a53611aab565b506000190190565b600181811c90821680611a6f57607f821691505b60208210811415610b7657634e487b7160e01b600052602260045260246000fd5b6000600019821415611aa457611aa4611aab565b5060010190565b634e487b7160e01b600052601160045260246000fdfea2646970667358221220c3324d448461146abef6c92e79bed7e94488f316476751d2d9d7568887660a9f64736f6c63430008040033",
  "linkReferences": {},
  "deployedLinkReferences": {}
}